:100000000C9434000C943E000C943E000C943E0082
:100010000C943E000C943E000C943E000C943E0068
:100020000C943E000C943E000C943E000C943E0058
:100030000C943E000C943E000C943E000C943E0048
:100040000C943E000C943E000C943E000C943E0038
:100050000C943E000C943E000C943E000C943E0028
:100060000C943E000C943E0011241FBECFEFD8E04C
:10007000DEBFCDBF0E9440000C946E000C940000C7
:1000800080E48AB986E085B981E884BD83E085BDD6
:1000900080E197E220E931E0F9013197F1F701972A
:1000A000D9F780E434E62EE19FEF199904C01A993C
:1000B00002C097BD11C0199904C01A9B02C027BD88
:1000C0000BC0199B04C01A9902C037BD05C0199B0B
:1000D000ECCF1A9BEACF17BC8AB9E7CFF894FFCFD1
:00000001FF
